{
  "_format": "hh-sol-artifact-1",
  "contractName": "Crowdfunding",
  "sourceName": "contracts/Crowdfunding.sol",
  "abi": [
    {
      "inputs": [],
      "stateMutability": "nonpayable",
      "type": "constructor"
    },
    {
      "anonymous": false,
      "inputs": [
        {
          "indexed": false,
          "internalType": "uint256",
          "name": "campaignId",
          "type": "uint256"
        },
        {
          "indexed": false,
          "internalType": "string",
          "name": "title",
          "type": "string"
        },
        {
          "indexed": false,
          "internalType": "address",
          "name": "benefactor",
          "type": "address"
        },
        {
          "indexed": false,
          "internalType": "uint256",
          "name": "goal",
          "type": "uint256"
        },
        {
          "indexed": false,
          "internalType": "uint256",
          "name": "deadline",
          "type": "uint256"
        }
      ],
      "name": "CampaignCreated",
      "type": "event"
    },
    {
      "anonymous": false,
      "inputs": [
        {
          "indexed": false,
          "internalType": "uint256",
          "name": "campaignId",
          "type": "uint256"
        },
        {
          "indexed": false,
          "internalType": "uint256",
          "name": "amountRaised",
          "type": "uint256"
        }
      ],
      "name": "CampaignEnded",
      "type": "event"
    },
    {
      "anonymous": false,
      "inputs": [
        {
          "indexed": false,
          "internalType": "uint256",
          "name": "campaignId",
          "type": "uint256"
        },
        {
          "indexed": false,
          "internalType": "address",
          "name": "donor",
          "type": "address"
        },
        {
          "indexed": false,
          "internalType": "uint256",
          "name": "amount",
          "type": "uint256"
        }
      ],
      "name": "DonationReceived",
      "type": "event"
    },
    {
      "inputs": [
        {
          "internalType": "uint256",
          "name": "",
          "type": "uint256"
        }
      ],
      "name": "campaigns",
      "outputs": [
        {
          "internalType": "string",
          "name": "title",
          "type": "string"
        },
        {
          "internalType": "string",
          "name": "description",
          "type": "string"
        },
        {
          "internalType": "address payable",
          "name": "benefactor",
          "type": "address"
        },
        {
          "internalType": "uint256",
          "name": "goal",
          "type": "uint256"
        },
        {
          "internalType": "uint256",
          "name": "deadline",
          "type": "uint256"
        },
        {
          "internalType": "uint256",
          "name": "amountRaised",
          "type": "uint256"
        },
        {
          "internalType": "bool",
          "name": "ended",
          "type": "bool"
        }
      ],
      "stateMutability": "view",
      "type": "function"
    },
    {
      "inputs": [
        {
          "internalType": "string",
          "name": "_title",
          "type": "string"
        },
        {
          "internalType": "string",
          "name": "_description",
          "type": "string"
        },
        {
          "internalType": "address payable",
          "name": "_benefactor",
          "type": "address"
        },
        {
          "internalType": "uint256",
          "name": "_goal",
          "type": "uint256"
        },
        {
          "internalType": "uint256",
          "name": "_duration",
          "type": "uint256"
        }
      ],
      "name": "createCampaign",
      "outputs": [],
      "stateMutability": "nonpayable",
      "type": "function"
    },
    {
      "inputs": [
        {
          "internalType": "uint256",
          "name": "_campaignId",
          "type": "uint256"
        }
      ],
      "name": "donateToCampaign",
      "outputs": [],
      "stateMutability": "payable",
      "type": "function"
    },
    {
      "inputs": [
        {
          "internalType": "uint256",
          "name": "_campaignId",
          "type": "uint256"
        }
      ],
      "name": "endCampaign",
      "outputs": [],
      "stateMutability": "nonpayable",
      "type": "function"
    },
    {
      "inputs": [],
      "name": "owner",
      "outputs": [
        {
          "internalType": "address",
          "name": "",
          "type": "address"
        }
      ],
      "stateMutability": "view",
      "type": "function"
    },
    {
      "inputs": [],
      "name": "withdrawLeftoverFunds",
      "outputs": [],
      "stateMutability": "nonpayable",
      "type": "function"
    },
    {
      "stateMutability": "payable",
      "type": "receive"
    }
  ],
  "bytecode": "0x608060405234801561001057600080fd5b50336000806101000a81548173ffffffffffffffffffffffffffffffffffffffff021916908373ffffffffffffffffffffffffffffffffffffffff16021790555061175e806100606000396000f3fe6080604052600436106100595760003560e01c8063141961bc146100655780632bd71681146100a857806342a4fda8146100bf5780638da5cb5b146100db5780639304d12414610106578063dd0408ae1461012f57610060565b3661006057005b600080fd5b34801561007157600080fd5b5061008c60048036038101906100879190610aa5565b610158565b60405161009f9796959493929190610bcd565b60405180910390f35b3480156100b457600080fd5b506100bd6102d7565b005b6100d960048036038101906100d49190610aa5565b610417565b005b3480156100e757600080fd5b506100f061063e565b6040516100fd9190610c6b565b60405180910390f35b34801561011257600080fd5b5061012d60048036038101906101289190610de7565b610662565b005b34801561013b57600080fd5b5061015660048036038101906101519190610aa5565b6108de565b005b600160205280600052604060002060009150905080600001805461017b90610ec9565b80601f01602080910402602001604051908101604052809291908181526020018280546101a790610ec9565b80156101f45780601f106101c9576101008083540402835291602001916101f4565b820191906000526020600020905b8154815290600101906020018083116101d757829003601f168201915b50505050509080600101805461020990610ec9565b80601f016020809104026020016040519081016040528092919081815260200182805461023590610ec9565b80156102825780601f1061025757610100808354040283529160200191610282565b820191906000526020600020905b81548152906001019060200180831161026557829003601f168201915b5050505050908060020160009054906101000a900473ffffffffffffffffffffffffffffffffffffffff16908060030154908060040154908060050154908060060160009054906101000a900460ff16905087565b60008054906101000a900473ffffffffffffffffffffffffffffffffffffffff1673ffffffffffffffffffffffffffffffffffffffff163373ffffffffffffffffffffffffffffffffffffffff1614610365576040517f08c379a000000000000000000000000000000000000000000000000000000000815260040161035c90610f6c565b60405180910390fd5b6000479050600081116103ad576040517f08c379a00000000000000000000000000000000000000000000000000000000081526004016103a490610ffe565b60405180910390fd5b60008054906101000a900473ffffffffffffffffffffffffffffffffffffffff1673ffffffffffffffffffffffffffffffffffffffff166108fc829081150290604051600060405180830381858888f19350505050158015610413573d6000803e3d6000fd5b5050565b806000600160008381526020019081526020016000206003015411610471576040517f08c379a00000000000000000000000000000000000000000000000000000000081526004016104689061106a565b60405180910390fd5b816001600082815260200190815260200160002060060160009054906101000a900460ff16156104d6576040517f08c379a00000000000000000000000000000000000000000000000000000000081526004016104cd906110d6565b60405180910390fd5b60006001600085815260200190815260200160002090508060040154421115610534576040517f08c379a000000000000000000000000000000000000000000000000000000000815260040161052b906110d6565b60405180910390fd5b60003411610577576040517f08c379a000000000000000000000000000000000000000000000000000000000815260040161056e90611168565b60405180910390fd5b3481600501600082825461058b91906111b7565b925050819055508060020160009054906101000a900473ffffffffffffffffffffffffffffffffffffffff1673ffffffffffffffffffffffffffffffffffffffff166108fc349081150290604051600060405180830381858888f193505050501580156105fc573d6000803e3d6000fd5b507f0b5b4c52969ff7329ecf7ee536409fda87812b15a8622bc6e8cdeab3aee14a26843334604051610630939291906111eb565b60405180910390a150505050565b60008054906101000a900473ffffffffffffffffffffffffffffffffffffffff1681565b600082116106a5576040517f08c379a000000000000000000000000000000000000000000000000000000000815260040161069c9061126e565b60405180910390fd5b600073ffffffffffffffffffffffffffffffffffffffff168373ffffffffffffffffffffffffffffffffffffffff1603610714576040517f08c379a000000000000000000000000000000000000000000000000000000000815260040161070b906112da565b60405180910390fd5b6000814261072291906111b7565b905060004290506000600160008381526020019081526020016000206003015414610782576040517f08c379a000000000000000000000000000000000000000000000000000000000815260040161077990611346565b60405180910390fd5b6040518060e001604052808881526020018781526020018673ffffffffffffffffffffffffffffffffffffffff16815260200185815260200183815260200160008152602001600015158152506001600083815260200190815260200160002060008201518160000190816107f79190611512565b50602082015181600101908161080d9190611512565b5060408201518160020160006101000a81548173ffffffffffffffffffffffffffffffffffffffff021916908373ffffffffffffffffffffffffffffffffffffffff160217905550606082015181600301556080820151816004015560a0820151816005015560c08201518160060160006101000a81548160ff0219169083151502179055509050507f2e4be7f0a0275b06869815699165e220352ac35bdea8c927565a098fa77dffb681888787866040516108cd959493929190611639565b60405180910390a150505050505050565b806000600160008381526020019081526020016000206003015411610938576040517f08c379a000000000000000000000000000000000000000000000000000000000815260040161092f9061106a565b60405180910390fd5b816001600082815260200190815260200160002060060160009054906101000a900460ff161561099d576040517f08c379a0000000000000000000000000000000000000000000000000000000008152600401610994906110d6565b60405180910390fd5b600060016000858152602001908152602001600020905080600401544210156109fb576040517f08c379a00000000000000000000000000000000000000000000000000000000081526004016109f2906116df565b60405180910390fd5b60018160060160006101000a81548160ff0219169083151502179055507f5a31f5edca5237d41a024875db1596a0ffd609862996afb3af78403ff8122b4f848260050154604051610a4d9291906116ff565b60405180910390a150505050565b6000604051905090565b600080fd5b600080fd5b6000819050919050565b610a8281610a6f565b8114610a8d57600080fd5b50565b600081359050610a9f81610a79565b92915050565b600060208284031215610abb57610aba610a65565b5b6000610ac984828501610a90565b91505092915050565b600081519050919050565b600082825260208201905092915050565b60005b83811015610b0c578082015181840152602081019050610af1565b60008484015250505050565b6000601f19601f8301169050919050565b6000610b3482610ad2565b610b3e8185610add565b9350610b4e818560208601610aee565b610b5781610b18565b840191505092915050565b600073ffffffffffffffffffffffffffffffffffffffff82169050919050565b6000610b8d82610b62565b9050919050565b610b9d81610b82565b82525050565b610bac81610a6f565b82525050565b60008115159050919050565b610bc781610bb2565b82525050565b600060e0820190508181036000830152610be7818a610b29565b90508181036020830152610bfb8189610b29565b9050610c0a6040830188610b94565b610c176060830187610ba3565b610c246080830186610ba3565b610c3160a0830185610ba3565b610c3e60c0830184610bbe565b98975050505050505050565b6000610c5582610b62565b9050919050565b610c6581610c4a565b82525050565b6000602082019050610c806000830184610c5c565b92915050565b600080fd5b600080fd5b7f4e487b7100000000000000000000000000000000000000000000000000000000600052604160045260246000fd5b610cc882610b18565b810181811067ffffffffffffffff82111715610ce757610ce6610c90565b5b80604052505050565b6000610cfa610a5b565b9050610d068282610cbf565b919050565b600067ffffffffffffffff821115610d2657610d25610c90565b5b610d2f82610b18565b9050602081019050919050565b82818337600083830152505050565b6000610d5e610d5984610d0b565b610cf0565b905082815260208101848484011115610d7a57610d79610c8b565b5b610d85848285610d3c565b509392505050565b600082601f830112610da257610da1610c86565b5b8135610db2848260208601610d4b565b91505092915050565b610dc481610b82565b8114610dcf57600080fd5b50565b600081359050610de181610dbb565b92915050565b600080600080600060a08688031215610e0357610e02610a65565b5b600086013567ffffffffffffffff811115610e2157610e20610a6a565b5b610e2d88828901610d8d565b955050602086013567ffffffffffffffff811115610e4e57610e4d610a6a565b5b610e5a88828901610d8d565b9450506040610e6b88828901610dd2565b9350506060610e7c88828901610a90565b9250506080610e8d88828901610a90565b9150509295509295909350565b7f4e487b7100000000000000000000000000000000000000000000000000000000600052602260045260246000fd5b60006002820490506001821680610ee157607f821691505b602082108103610ef457610ef3610e9a565b5b50919050565b7f4f6e6c792074686520636f6e7472616374206f776e65722063616e207065726660008201527f6f726d207468697320616374696f6e0000000000000000000000000000000000602082015250565b6000610f56602f83610add565b9150610f6182610efa565b604082019050919050565b60006020820190508181036000830152610f8581610f49565b9050919050565b7f4e6f2066756e647320617661696c61626c6520666f722077697468647261776160008201527f6c00000000000000000000000000000000000000000000000000000000000000602082015250565b6000610fe8602183610add565b9150610ff382610f8c565b604082019050919050565b6000602082019050818103600083015261101781610fdb565b9050919050565b7f43616d706169676e20646f6573206e6f74206578697374000000000000000000600082015250565b6000611054601783610add565b915061105f8261101e565b602082019050919050565b6000602082019050818103600083015261108381611047565b9050919050565b7f43616d706169676e2068617320616c726561647920656e646564000000000000600082015250565b60006110c0601a83610add565b91506110cb8261108a565b602082019050919050565b600060208201905081810360008301526110ef816110b3565b9050919050565b7f446f6e6174696f6e206d7573742062652067726561746572207468616e207a6560008201527f726f000000000000000000000000000000000000000000000000000000000000602082015250565b6000611152602283610add565b915061115d826110f6565b604082019050919050565b6000602082019050818103600083015261118181611145565b9050919050565b7f4e487b7100000000000000000000000000000000000000000000000000000000600052601160045260246000fd5b60006111c282610a6f565b91506111cd83610a6f565b92508282019050808211156111e5576111e4611188565b5b92915050565b60006060820190506112006000830186610ba3565b61120d6020830185610c5c565b61121a6040830184610ba3565b949350505050565b7f476f616c206d7573742062652067726561746572207468616e207a65726f0000600082015250565b6000611258601e83610add565b915061126382611222565b602082019050919050565b600060208201905081810360008301526112878161124b565b9050919050565b7f42656e65666163746f722061646472657373206d7573742062652076616c6964600082015250565b60006112c4602083610add565b91506112cf8261128e565b602082019050919050565b600060208201905081810360008301526112f3816112b7565b9050919050565b7f43616d706169676e20494420616c726561647920657869737473000000000000600082015250565b6000611330601a83610add565b915061133b826112fa565b602082019050919050565b6000602082019050818103600083015261135f81611323565b9050919050565b60008190508160005260206000209050919050565b60006020601f8301049050919050565b600082821b905092915050565b6000600883026113c87fffffffffffffffffffffffffffffffffffffffffffffffffffffffffffffffff8261138b565b6113d2868361138b565b95508019841693508086168417925050509392505050565b6000819050919050565b600061140f61140a61140584610a6f565b6113ea565b610a6f565b9050919050565b6000819050919050565b611429836113f4565b61143d61143582611416565b848454611398565b825550505050565b600090565b611452611445565b61145d818484611420565b505050565b5b818110156114815761147660008261144a565b600181019050611463565b5050565b601f8211156114c65761149781611366565b6114a08461137b565b810160208510156114af578190505b6114c36114bb8561137b565b830182611462565b50505b505050565b600082821c905092915050565b60006114e9600019846008026114cb565b1980831691505092915050565b600061150283836114d8565b9150826002028217905092915050565b61151b82610ad2565b67ffffffffffffffff81111561153457611533610c90565b5b61153e8254610ec9565b611549828285611485565b600060209050601f83116001811461157c576000841561156a578287015190505b61157485826114f6565b8655506115dc565b601f19841661158a86611366565b60005b828110156115b25784890151825560018201915060208501945060208101905061158d565b868310156115cf57848901516115cb601f8916826114d8565b8355505b6001600288020188555050505b505050505050565b60006115ff6115fa6115f584610b62565b6113ea565b610b62565b9050919050565b6000611611826115e4565b9050919050565b600061162382611606565b9050919050565b61163381611618565b82525050565b600060a08201905061164e6000830188610ba3565b81810360208301526116608187610b29565b905061166f604083018661162a565b61167c6060830185610ba3565b6116896080830184610ba3565b9695505050505050565b7f43616d706169676e206973207374696c6c206f6e676f696e6700000000000000600082015250565b60006116c9601983610add565b91506116d482611693565b602082019050919050565b600060208201905081810360008301526116f8816116bc565b9050919050565b60006040820190506117146000830185610ba3565b6117216020830184610ba3565b939250505056fea26469706673582212207c3a3a1f6e1de329647b66563a4ba21591d8a267e13cb0b3ce0fdf09decc0fc264736f6c63430008180033",
  "linkReferences": {},
  "deployedLinkReferences": {}
}